:100000000C946B000C9488000C9488000C9488006D
:100010000C9488000C9488000C9488000C94880040
:100020000C9488000C9488000C9488000C94880030
:100030000C9488000C9488000C9488000C94880020
:100040000C9488000C9488000C9488000C94880010
:100050000C94880007634236B79BD8A71A396856B4
:1000600018AEBAAB558C1D3CB7CC5763BD6DEDFDDA
:10007000753EF6177231BF000000803F0800000097
:10008000BE922449123EABAAAA2ABECDCCCC4C3E8D
:1000900000000080BEABAAAAAA3E00000000BF007C
:1000A0000000803F0000000000084178D3BB438778
:1000B000D1133D190E3CC3BD4282AD2B3E68EC828C
:1000C00076BED98FE1A93E4C80EFFFBE01C4FF7F11
:1000D0003F000000000011241FBECFE5D8E0DEBFC6
:1000E000CDBF10E0A0E6B0E0E0E6F8E102C0059088
:1000F0000D92A838B107D9F710E0A8E8B0E001C028
:100100001D92A938B107E1F70E948A000C942E0CC9
:100110000C940000CF93DF93CDB7DEB7E1970FB615
:10012000F894DEBF0FBECDBF0E94DF030E945803CC
:1001300044245524320119A21AA21BA21CA21DA2FA
:100140001EA21FA218A61D8A1E8A1F8A188E882426
:10015000992454011D8E1E8E1F8E18A2198E1A8E80
:100160001B8E1C8E19A6332400E0CC24DD247601DE
:100170000E946103182F21E04216510461047104AA
:1001800009F06CC28D3259F481149104A104B104B8
:1001900009F08CC28DE20E941D0401E0E9CF80537A
:1001A0008A3008F055C081149104A104B10429F5E6
:1001B000698D7A8D8B8D9C8D2AE030E040E050E097
:1001C0000E94AB0BAB01BC01812F90E0C097AA2726
:1001D00097FDA095BA2F4A015B01880E991EAA1EB1
:1001E000BB1E898E9A8EAB8EBC8E812F0E941D0401
:1001F000882499245401839431C221E08216910409
:10020000A104B10429F5698D7A8D8B8D9C8D2AE02E
:1002100030E040E050E00E94AB0B698F7A8F8B8F0B
:100220009C8F812F90E0C097AA2797FDA095BA2FA9
:10023000298D3A8D4B8D5C8D280F391F4A1F5B1F0E
:10024000298F3A8F4B8F5C8F812F0E941D0406C22D
:1002500032E083169104A104B10489F42D893E890A
:100260004F89588D211531054105510541F41D3245
:1002700031F48DE20E941D043324339479CF8A3007
:1002800008F069C032E083169104A104B104A9F515
:100290008D899E89AF89B88D0097A105B10569F553
:1002A0006D8D7E8D8F8D98A12AE030E040E050E08A
:1002B0000E94AB0B6D8B7E8B8F8B988F812F90E084
:1002C000C097AA2797FDA095BA2F2D893E894F89FF
:1002D000588D280F391F4A1F5B1F2D8F3E8F4F8F60
:1002E00058A3812F0E941D0481E090E0A0E0B0E0BF
:1002F0008D8B9E8BAF8BB88FB1C12D893E894F8975
:10030000588D213031054105510529F56D8D7E8DC2
:100310008F8D98A12AE030E040E050E00E94AB0BC6
:100320006D8F7E8F8F8F98A3812F90E0C097AA2723
:1003300097FDA095BA2F2D8D3E8D4F8D58A1280F7A
:10034000391F4A1F5B1F2D8F3E8F4F8F58A3812F60
:100350000E941D0483C11B3241F01D3231F01A325C
:1003600021F01F3211F01D33A9F481149104A1046E
:10037000B10461F4812F0E941D0481E090E0A0E0AF
:10038000B0E089A39AA3ABA3BCA368C11B3231F030
:100390001D3221F01A3211F01F32B1F492E08916A9
:1003A0009104A104B10461F4812F0E941D0421E095
:1003B00030E040E050E029A33AA34BA35CA34EC138
:1003C0001B3231F01D3221F01A3211F01F3281F44C
:1003D00031E083169104A104B10451F4812F0E94ED
:1003E0001D04212E882499245401689481F836C173
:1003F0001D3309F033C141E084169104A104B10416
:1004000081F40E94540481E063E00E943F048CE088
:100410000E94BD0380E690E00E945E042601370141
:10042000A7CE89A19AA1ABA1BCA181309105A1055C
:10043000B10581F40E94540481E063E00E943F040E
:100440008CE00E94BD0380E690E00E945E042601DD
:1004500037018ECE002379F0298D3A8D4B8D5C8D3E
:1004600050954095309521953F4F4F4F5F4F298FC5
:100470003A8F4B8F5C8F332079F08D8D9E8DAF8DB1
:10048000B8A1B095A095909581959F4FAF4FBF4F64
:100490008D8F9E8FAF8FB8A39BE2291689F4298D8B
:1004A0003A8D4B8D5C8D8D8D9E8DAF8DB8A1280FB3
:1004B000391F4A1F5B1F2AA73BA74CA75DA78AC00D
:1004C0009DE2291689F4298D3A8D4B8D5C8D8D8D99
:1004D0009E8DAF8DB8A1281B390B4A0B5B0B2AA749
:1004E0003BA74CA75DA776C09AE2291679F4698DDF
:1004F0007A8D8B8D9C8D2D8D3E8D4F8D58A10E94B8
:10050000AB0B6AA77BA78CA79DA764C0AFE22A1696
:1005100009F060C0698D7A8D8B8D9C8D2D8D3E8DFF
:100520004F8D58A10E94DD0BDC01CB010097A10586
:10053000B10511F0B1E0B9A72D8D3E8D4F8D58A1B9
:100540002115310541055105B9F40E94540481E09B
:1005500063E00E943F048CE00E94BD038DE690E0C2
:100560000E945E042601370181E090E0A0E0B0E047
:100570008DA39EA3AFA3B8A7698D7A8D8B8D9C8D1B
:100580000E9457096AA77BA78CA79DA76D8D7E8DBA
:100590008F8D98A10E9457099B01AC016AA57BA58C
:1005A0008CA59DA50E94BC08462F572F682F792F38
:1005B0004EA75FA768AB79AB698D7A8D8B8D9C8DCB
:1005C0002D8D3E8D4F8D58A10E94DD0B2AA73BA794
:1005D0004CA75DA72DA13EA14FA158A5211531051E
:1005E00041055105D9F582E062E00E943F048DE3A8
:1005F0000E941D0439A5313031F541E0341619F45B
:10060000002329F010C0332071F4002361F08DE243
:100610000E941D048EA59FA5A8A9B9A9B0588EA7B0
:100620009FA7A8ABB9AB6EA57FA588A999A9AE0174
:100630004F5F5F4F23E030E00E947F05CE010196BF
:100640000E945E0406C06AA57BA58CA59DA50E949C
:100650006D048CE00E94BD0326013701133409F0BC
:1006600087CD0E945404109288008EE00E94BD0342
:100670004424552432014394C9A2DAA2EBA2FCA27D
:10068000CDA2DEA2EFA2F8A6CD8ADE8AEF8AF88E8E
:1006900046015701CD8EDE8EEF8EF8A2C98EDA8E1E
:1006A000EB8EFC8E19A6332400E062CD8053D0CDB2
:1006B00081E06FE00E94AE0781E06FEF0E94C1070A
:1006C0000895CF92DF92EF92FF920F931F93CF93F3
:1006D000DF93EE24FF24DFEFCC246894C2F8DE2CF5
:1006E00081E060E041E00E94850681E061E041E058
:1006F0000E94850681E062E041E00E94850681E07B
:1007000063E041E00E94850681E06E2D40E00E949A
:100710008506870108581F4FCC2D81E06C2F0E9461
:100720005007882311F4F801D08181E06C2F0E94DA
:1007300050078823D1F38FEC97E00197F1F700C0C1
:100740000000CF5F0C5F1F4FC83039F781E06D2D7F
:1007500041E00E9485060894E11CF11C94E0E91632
:10076000F10409F0BCCF8D2FDF91CF911F910F9134
:10077000FF90EF90DF90CF900895CF93C82F82E045
:1007800061E040E00E94850682E060E040E00E9477
:10079000850680E06C2F0E94C10782E062E041E0A4
:1007A0000E94850682E062E040E00E94850681EEBC
:1007B00094E00197F1F700C00000CF91089580E028
:1007C0006FEF0E94AE0782E062E041E00E94FD050B
:1007D00082E061E041E00E94FD0582E060E041E0EE
:1007E0000E94FD0585E49EE10197F1F700C000003D
:1007F00088E30E94BD038FE097E20197F1F700C004
:1008000000008CE00E94BD038FE097E20197F1F7B2
:1008100000C0000081E00E94BD0380E891E00197E4
:10082000F1F700C0000086E00E94BD0383EF91E075
:100830000197F1F700C000000895CF93C82F82E020
:1008400061E040E00E94850682E060E041E00E94B5
:10085000850680E06C2F0E94C10782E062E041E0E3
:100860000E94850682E062E040E00E94850681EEFB
:1008700094E00197F1F700C00000CF910895813115
:1008800090F4633080F4882371F0662361F0613066
:1008900019F0623041F404C081580E94BD030895EC
:1008A00081540E94BD03089581E00E94BD0383EF3F
:1008B00091E00197F1F700C000000895CF93DF9316
:1008C000EC018881882331F021960E941D048991D2
:1008D0008823D9F7DF91CF9108954F925F926F925D
:1008E0007F928F929F92AF92BF92CF92DF92EF92C0
:1008F000FF92CF93DF936B017C0161157105810538
:10090000910521F480E30E941D0462C099235CF4E8
:100910008DE20E941D04F094E094D094C094C11C18
:10092000D11CE11CF11C1C141D041E041F040CF03E
:100930004FC081E090E0A0E0B0E00F2EFAE08F2EF3
:10094000F0E09F2EF0E0AF2EF0E0BF2EF02DBC01C6
:10095000CD01A50194010E94AB0B2B013C01C70105
:10096000B6010E94DD0BDC01CB01840D951DA61D97
:10097000B71DC22ED32EE42EF52E1C141D041E040A
:100980001F042CF381309105A105B10509F10F2E4B
:10099000FAE04F2EF0E05F2EF0E06F2EF0E07F2EB9
:1009A000F02DBC01CD01A30192010E94DD0B822E2E
:1009B000C32EC42FD52F862F805D0E941D04882D45
:1009C0009C2DAC2FBD2F81309105A105B10549F7B4
:1009D000DF91CF91FF90EF90DF90CF90BF90AF90DD
:1009E0009F908F907F906F905F904F9008950F939E
:1009F0001F93CF93DF93062F172F880F880F880F31
:100A0000805C0E94BD03C02FD12F10E089910E940D
:100A10001D041F5F1830D1F780E80E94BD03DF91ED
:100A2000CF911F910F910895882311F00E941D040A
:100A300008959B01215030401216130684F4DC0106
:100A4000A60FB71FFC0180E090E040815E915193BA
:100A50004C9301962150304082179307B4F30895C8
:100A6000EF92FF920F931F93CF93DF937B018A0145
:100A7000009781F0FB01C0E0D0E02AE030E0B9014E
:100A80000E94CA0B805D81932196862F972F009735
:100A9000B1F702C0C0E0D0E0C017D10794F4F7016D
:100AA000EC0FFD1FCE0120E32193019680179107E3
:100AB000DCF3CE010196C095D095C00FD11FC80FB1
:100AC000D91FC701BE010E941905F701EC0FFD1FD8
:100AD00010828C2F9D2FDF91CF911F910F91FF904E
:100AE000EF900895FC018081882341F0CF010196A9
:100AF0001082FC01019620812223D1F708954F92A4
:100B00005F926F927F928F929F92AF92BF92CF929D
:100B1000DF92EF92FF920F931F93CF93DF936B01BE
:100B20007C01EA015901CA010E947205C701B601A0
:100B30000E942409DC01CB018C01BE0140E050E0A1
:100B40000E943005A114B10409F446C0482E592E64
:100B5000FE01E40DF51D8EE28083B501882777FD47
:100B60008095982F0E9457099B01AC0160E070E0CE
:100B700080E291E40E94460A962E872E782E692EF6
:100B8000B801882777FD8095982F0E9457099B010F
:100B9000AC01C701B6010E945708F62FE72F382F86
:100BA000292F492D582D672D762DCB01BA01422FC3
:100BB0000F2F1E2F232F342FA90198010E94E30924
:100BC0000E942409DC01CB01B2016F5F7F4F6C0FE3
:100BD0007D1FA5010E943005DF91CF911F910F91DC
:100BE000FF90EF90DF90CF90BF90AF909F908F904D
:100BF0007F906F905F904F900895843008F084C08C
:100C0000683008F081C0442309F042C08130B1F05F
:100C1000813030F0823001F1833009F075C02AC094
:100C20002AB381E090E0AC0102C0440F551F6A95E1
:100C3000E2F7BA01609562236ABB089527B381E0A9
:100C400090E0AC0102C0440F551F6A95E2F7BA016B
:100C50006095622367BB089524B381E090E0AC0106
:100C600002C0440F551F6A95E2F7BA0160956223EE
:100C700064BB089521B381E090E0AC0102C0440F51
:100C8000551F6A95E2F7BA016095622361BB08952A
:100C90004130D1F58130A1F0813028F08230E9F087
:100CA000833091F526C02AB381E090E0AC0102C008
:100CB000440F551F6A95E2F7BA01622B6ABB08958B
:100CC00027B381E090E0AC0102C0440F551F6A9544
:100CD000E2F7BA01622B67BB089544B321E030E02C
:100CE000C90102C0880F991F6A95E2F7842B84BB63
:100CF000089541B321E030E0C90102C0880F991F77
:100D00006A95E2F7842B81BB0895843008F084C093
:100D1000683008F081C0442309F042C08130B1F04E
:100D2000813030F0823001F1833009F075C02AC083
:100D30002BB381E090E0AC0102C0440F551F6A95CF
:100D4000E2F7BA01609562236BBB089528B381E096
:100D500090E0AC0102C0440F551F6A95E2F7BA015A
:100D60006095622368BB089525B381E090E0AC01F3
:100D700002C0440F551F6A95E2F7BA0160956223DD
:100D800065BB089522B381E090E0AC0102C0440F3E
:100D9000551F6A95E2F7BA016095622362BB089518
:100DA0004130D1F58130A1F0813028F08230E9F076
:100DB000833091F526C02BB381E090E0AC0102C0F6
:100DC000440F551F6A95E2F7BA01622B6BBB089579
:100DD00028B381E090E0AC0102C0440F551F6A9532
:100DE000E2F7BA01622B68BB089545B321E030E019
:100DF000C90102C0880F991F6A95E2F7842B85BB51
:100E0000089542B321E030E0C90102C0880F991F64
:100E10006A95E2F7842B82BB0895843008F03FC0C6
:100E2000683008F03CC08130A1F0813028F0823079
:100E3000E9F08330A1F527C02BB381E090E0AC014D
:100E400002C0440F551F6A95E2F7BA0162276BBBD7
:100E5000089528B381E090E0AC0102C0440F551F13
:100E60006A95E2F7BA01622768BB089525B381E06D
:100E700090E0AC0102C0440F551F6A95E2F7BA0139
:100E8000622765BB089522B381E090E0AC0102C007
:100E9000440F551F6A95E2F7BA01622762BB0895B5
:100EA000843008F05AC0683008F057C08130D9F05B
:100EB000813030F0823051F1833009F04CC039C0BC
:100EC00029B381E090E0062E02C0880F991F0A9492
:100ED000E2F730E08223932302C0959587956A95C7
:100EE000E2F7982F38C026B381E090E0062E02C0CA
:100EF000880F991F0A94E2F730E08223932302C0FF
:100F0000959587956A95E2F7982F25C023B381E0E0
:100F100090E0062E02C0880F991F0A94E2F730E095
:100F20008223932302C0959587956A95E2F7982FBF
:100F300012C020B381E090E0062E02C0880F991FF6
:100F40000A94E2F730E08223932302C095958795B7
:100F50006A95E2F7982F892F08950895843080F4D8
:100F6000813049F0813028F0823039F0833041F40B
:100F700006C06ABB089567BB089564BB089561BB52
:100F80000895843080F4813049F0813028F0823037
:100F900039F0833041F406C06BBB089568BB0895F7
:100FA00065BB089562BB0895823451F1833420F407
:100FB000813409F07BC007C0833409F43EC0843417
:100FC00009F074C057C0413069F42BB381E090E060
:100FD000AC0102C0440F551F6A95E2F7BA01622BBB
:100FE0006BBB08952BB381E090E0AC0102C0440FCD
:100FF000551F6A95E2F7BA01609562236BBB0895AD
:10100000413069F428B381E090E0AC0102C0440FA4
:10101000551F6A95E2F7BA01622B68BB089528B3A1
:1010200081E090E0AC0102C0440F551F6A95E2F7E1
:10103000BA016095622368BB0895413069F425B315
:1010400081E090E0AC0102C0440F551F6A95E2F7C1
:10105000BA01622B65BB089525B381E090E0AC0135
:1010600002C0440F551F6A95E2F7BA0160956223EA
:1010700065BB0895413069F422B381E090E0AC0192
:1010800002C0440F551F6A95E2F7BA01622B62BB9A
:10109000089522B381E090E0AC0102C0440F551FD7
:1010A0006A95E2F7BA016095622362BB08955058D1
:1010B000BB27AA270ED04DC13ED130F043D120F03E
:1010C00031F49F3F11F41EF433C10EF4E095E7FBB9
:1010D00029C1E92F4FD180F3BA176207730784073C
:1010E000950718F071F49EF567C10EF4E0950B2E8C
:1010F000BA2FA02D0B01B90190010C01CA01A0016A
:101100001124FF27591B99F0593F50F4503E68F1C4
:101110001A16F040A22F232F342F4427585FF3CF05
:10112000469537952795A795F0405395C9F77EF4D6
:101130001F16BA0B620B730B840BBAF09150A1F01F
:10114000FF0FBB1F661F771F881FC2F70EC0BA0FA5
:10115000621F731F841F48F4879577956795B7952D
:10116000F7959E3F08F0B3CF9395880F08F0992725
:10117000EE0F9795879508950CD0EBC0E3D040F023
:10118000DAD030F021F45F3F19F0CCC0511115C115
:10119000CFC0F0D098F39923C9F35523B1F3951B31
:1011A000550BBB27AA2762177307840738F09F5F88
:1011B0005F4F220F331F441FAA1FA9F333D00E2EF7
:1011C0003AF0E0E830D091505040E695001CCAF764
:1011D00029D0FE2F27D0660F771F881FBB1F261729
:1011E00037074807AB07B0E809F0BB0B802DBF01FC
:1011F000FF2793585F4F2AF09E3F510568F092C039
:10120000DCC05F3FECF3983EDCF3869577956795FD
:10121000B795F7959F5FC9F7880F911D96958795AC
:1012200097F90895E1E0660F771F881FBB1F6217CB
:1012300073078407BA0720F0621B730B840BBA0B89
:10124000EE1F88F7E095089504D06894B111B5C0F9
:10125000089598D088F09F5790F0B92F9927B751EB
:10126000A0F0D1F0660F771F881F991F1AF0BA956A
:10127000C9F712C0B13081F09FD0B1E008959CC091
:10128000672F782F8827B85F39F0B93FCCF3869560
:1012900077956795B395D9F73EF4909580957095BD
:1012A00061957F4F8F4F9F4F0895E89409C097FB3A
:1012B0003EF490958095709561957F4F8F4F9F4F2D
:1012C0009923A9F0F92F96E9BB279395F695879571
:1012D00077956795B795F111F8CFFAF4BB0F11F434
:1012E00060FF1BC06F5F7F4F8F4F9F4F16C08823DB
:1012F00011F096E911C0772321F09EE8872F762F11
:1013000005C0662371F096E8862F70E060E02AF051
:101310009A95660F771F881FDAF7880F969587953D
:1013200097F9089597F99F6780E870E060E0089565
:101330009FEF80EC089500240A94161617061806ED
:101340000906089500240A941216130614060506C9
:101350000895092E0394000C11F4882352F0BB0F5A
:1013600040F4BF2B11F460FF04C06F5F7F4F8F4FBD
:101370009F4F089557FD9058440F551F59F05F3FF8
:1013800071F04795880F97FB991F61F09F3F79F0A7
:1013900087950895121613061406551FF2CF469529
:1013A000F1DF08C0161617061806991FF1CF8695AB
:1013B0007105610508940895E894BB27662777278F
:1013C000CB0197F908950BD0C4CFB5DF28F0BADF71
:1013D00018F0952309F0A6CFABCF1124EECFCADFCA
:1013E000A0F3959FD1F3950F50E0551F629FF00138
:1013F000729FBB27F00DB11D639FAA27F00DB11D91
:10140000AA1F649F6627B00DA11D661F829F222719
:10141000B00DA11D621F739FB00DA11D621F839FA0
:10142000A00D611D221F749F3327A00D611D231F76
:10143000849F600D211D822F762F6A2F11249F57C4
:1014400050408AF0E1F088234AF0EE0FFF1FBB1FE7
:10145000661F771F881F91505040A9F79E3F510586
:1014600070F060CFAACF5F3FECF3983EDCF3869537
:1014700077956795B795F795E7959F5FC1F7FE2B31
:10148000880F911D9695879597F90895FA01EE0FAB
:10149000FF1F30962105310599F16115710561F441
:1014A0008038BFE39B0749F168949038810561F06B
:1014B0008038BFEF9B0741F0992342F5FF3FE105DC
:1014C0003105210511F1E8940894E795D901AA2383
:1014D00029F4AB2FBE2FF85FD0F310C0FF5F70F47C
:1014E000A695E0F7F73950F019F0FF3A38F49F77F6
:1014F0009F930CD00F9007FC905808953EF018CFA2
:1015000060E070E080E89FE308954FE79F775F9386
:101510004F933F932F939ED02F913F914F915F9187
:1015200052DF05C019F40EF0FDCE46CF01CF2ADF01
:10153000C8F39638C0F707F80F92E8942BE33AEA1D
:1015400048EB5FE74EDF0F920F920F924DB75EB7F9
:101550000F92C0D0E4E5F0E016D04F915F91EF918B
:10156000FF91E595EE1FFF1F49F0FE57E068442705
:10157000EE0F441FFA95E1F74195550B32D00F90CD
:1015800007FE26C00895DF93CF931F930F93FF921A
:10159000EF92DF927B018C01689405C0DA2EEF0197
:1015A0001EDFFE01E894A591259135914591559155
:1015B000AEF3EF018EDDFE019701A801DA9479F711
:1015C000DF90EF90FF900F911F91CF91DF910895E1
:1015D0009B01AC0160E070E080E89FE3CDCDA2CE3E
:1015E000ACC0D0DEE8F39923D9F3940F511DBBF3BF
:1015F0009150504094F059F0882332F0660F771FD5
:10160000881F91505040C1F79E3F510544F7880F05
:10161000911D9695879597F908955F3FACF0983E98
:101620009CF0BB27869577956795B79508F4B160D0
:101630009395C1F7BB0F58F711F460FFE8CF6F5FC8
:101640007F4F8F4F9F4FE3CFB8CE0EF076C070CE56
:10165000689468CE97DEC8F39923D1F3C6F3DF937D
:10166000CF931F930F93FF92C92FDD2788232AF072
:101670002197660F771F881FDAF720E030E040E8F7
:101680005FEB9FE3883920F0803E30F021968F7722
:101690000FDDECE7F0E003C00BDDE9EAF0E073DF1B
:1016A0008B01BE01EC01FB2E6F5771097595771FF9
:1016B000880B990BFCDD28E132E741E35FE38FDE25
:1016C000AF2D9801AE01FF900F911F91CF91DF9147
:1016D00000DD3FCEFA01DC01AA0FBB1F9B01AC016C
:1016E000BF5728F422273327442750781FC0B7510B
:1016F00088F4AB2F0024469537952795011CA395B8
:10170000D2F3002069F0220F331F441FB395DAF3A0
:101710000DD0CDCC61307105A0E88A07B94630F410
:101720009B01AC016627772788279078309621F0B7
:10173000208331834283538308959F3F31F091503A
:1017400020F4879577956795B795880F911D9695A5
:10175000879597F90895629FD001739FF001829F4A
:10176000E00DF11D649FE00DF11D929FF00D839F30
:10177000F00D749FF00D659FF00D9927729FB00DCD
:10178000E11DF91F639FB00DE11DF91FBD01CF01E0
:101790001124089597FB092E07260AD077FD04D05F
:1017A00027D006D000201AF4709561957F4F0895D8
:1017B000F6F7909581959F4F089597FB092E052682
:1017C0000ED057FD04D028D00AD0001C38F4509514
:1017D0004095309521953F4F4F4F5F4F0895F6F755
:1017E00090958095709561957F4F8F4F9F4F08958D
:1017F000AA1BBB1B51E107C0AA1FBB1FA617B70737
:1018000010F0A61BB70B881F991F5A95A9F7809552
:101810009095BC01CD010895A1E21A2EAA1BBB1B15
:10182000FD010DC0AA1FBB1FEE1FFF1FA217B307AC
:10183000E407F50720F0A21BB30BE40BF50B661FC2
:10184000771F881F991F1A9469F760957095809586
:1018500090959B01AC01BD01CF010895F894FFCF95
:1018600073796E746178206572726F72006D617445
:1018700068206572726F72003738392F3435362A16
:081880003132332D43303D2BC2
:00000001FF
